:100000000C948D000C94AA000C94AA000C94AA00E5
:100010000C94AA000C94AA000C94AA000C94AA00B8
:100020000C94AA000C94AA000C94AA000C94AA00A8
:100030000C94AA000C94AA000C94AA000C94AA0098
:100040000C94AA000C94AA000C94AA000C94AA0088
:100050000C94AA004504C804C804C804C8042404B5
:10006000C804C804C804C804C804C804C8045004A8
:100070003A04C8045B04660471047C048704920497
:100080009D04A804B304BE04C804C804C8042F0413
:10009000C804C804C804060311031C032703320361
:1000A0003D03480353035E03690374037F038A031C
:1000B0009503A003AB03B603C103CC03D703E2034C
:1000C000ED03F80303040E041904C804C804C804AB
:1000D000C804C804C804060311031C032703320321
:1000E0003D03480353035E03690374037F038A03DC
:1000F0009503A003AB03B603C103CC03D703E2030C
:10010000ED03F80303040E041904D908D908DD0827
:10011000E108E508E908ED08ED0811241FBECFE568
:10012000D8E0DEBFCDBF10E0A0E6B0E0E4E9F7E143
:1001300002C005900D92A83AB107D9F720E0A8EACD
:10014000B0E001C01D92AB3AB207E1F70E94B006E1
:100150000C94C80B0C940000843008F072C0683016
:1001600008F06FC0423008F06CC0813001F130F00F
:100170008230B1F1833009F44CC00895413059F414
:100180002AB381E090E002C0880F991F6A95E2F7D8
:10019000822B8ABB08952AB381E090E002C0880FC9
:1001A000991F6A95E2F7809582238ABB08954130B2
:1001B00059F427B381E090E002C0880F991F6A9537
:1001C000E2F7822B87BB089527B381E090E002C05D
:1001D000880F991F6A95E2F78095822387BB08955F
:1001E000413059F424B381E090E002C0880F991F98
:1001F0006A95E2F7822B84BB089524B381E090E0F6
:1002000002C0880F991F6A95E2F78095822384BB0C
:100210000895413059F421B381E090E002C0880F85
:10022000991F6A95E2F7822B81BB089521B381E083
:1002300090E002C0880F991F6A95E2F780958223AB
:1002400081BB0895843008F072C0683008F06FC038
:10025000423008F06CC0813001F130F08230B1F1F1
:10026000833009F44CC00895413059F42BB381E038
:1002700090E002C0880F991F6A95E2F7822B8BBB32
:1002800008952BB381E090E002C0880F991F6A9512
:10029000E2F7809582238BBB0895413059F428B34F
:1002A00081E090E002C0880F991F6A95E2F7822BE7
:1002B00088BB089528B381E090E002C0880F991FA1
:1002C0006A95E2F78095822388BB0895413059F4FE
:1002D00025B381E090E002C0880F991F6A95E2F78C
:1002E000822B85BB089525B381E090E002C0880F82
:1002F000991F6A95E2F78095822385BB0895413066
:1003000059F422B381E090E002C0880F991F6A95EA
:10031000E2F7822B82BB089522B381E090E002C015
:10032000880F991F6A95E2F78095822382BB089512
:10033000843038F59FEF960F9E3F18F1813069F0B9
:1003400028F0823089F08330B1F008956F3F19F4BE
:100350008FEF8ABB08951ABA08956F3F19F48FEF93
:1003600087BB089517BA08956F3F19F48FEF84BBC8
:10037000089514BA08956F3F19F48FEF81BB089563
:1003800011BA0895843078F4813041F028F0823039
:1003900039F0833039F008956BBB089568BB089538
:1003A00065BB089562BB0895813089F028F08230E2
:1003B000C9F0833011F1089540E064E081E00E94CB
:1003C000220140E065E081E00E942201089541E0C1
:1003D00064E081E00E94220140E065E081E00E944B
:1003E0002201089540E064E081E00E94220141E0A2
:1003F00065E081E00E942201089541E064E081E02F
:100400000E94220141E065E081E00E9422010895FE
:10041000CF93C82F40E062E081E00E94220140E0DB
:1004200061E081E00E9422016C2F80E00E94C20105
:1004300041E060E081E00E94220100C000C00000B5
:1004400040E060E081E00E942201CF91089541E008
:1004500060E081E00E94AC0041E062E081E00E9447
:10046000AC0041E061E081E00E94AC0041E066E068
:1004700081E00E94AC0041E064E081E00E94AC00B9
:1004800041E065E081E00E94AC0061E080E00E9414
:10049000980141E066E081E00E94220183E00E9431
:1004A000D4018EE30E94080288EB0E940802109299
:1004B000AA0080E40E9408021092A90080EC0E9429
:1004C00008028FE30E94080281E00E94D40110928A
:1004D000A8000895CF93C82F41E062E081E00E9418
:1004E000220140E061E081E00E9422016C2F80E067
:1004F0000E94C20141E060E081E00E94220100C050
:1005000000C0000040E060E081E00E942201CF9145
:10051000089540E066E081E00E94220183E08A9530
:10052000F1F7000041E066E081E00E9422010895B9
:100530009F92AF92BF92CF92DF92EF92FF920F9372
:100540001F93CF93DF93922EA32EB42EC52ED62EBB
:10055000E72EF82ED92FC0E030C08091AA00885431
:100560000E9408028091A900805C0E9408020C2F62
:1005700010E0000F111F000F111F000F111F292D78
:100580003A2D4B2D5C2D6D2D7E2D8F2D9D2F0E9494
:100590007B0B822F0E946A028091A9008F5F80935B
:1005A000A900803448F08091A800811105C082E044
:1005B0000E94D4011092A900CF5FC53070F2DF9184
:1005C000CF911F910F91FF90EF90DF90CF90BF9050
:1005D000AF909F900895E82F91E08091A80081113D
:1005E00090E081E02091A900293308F080E0892B78
:1005F00009F4EBC18E2F90E0FC01B097EB35F105CB
:1006000008F0C6C1E65DFF4F0C94680B2CE732E1A1
:1006100041E152E16CE770E080E090E00E949802D6
:10062000B7C12FE739E449E459E466E370E080E0BC
:1006300090E00E949802ACC12EE331E441E451E421
:1006400061E470E080E090E00E949802A1C12FE791
:1006500031E441E45EE360E070E080E090E00E941D
:10066000980296C12FE739E449E459E461E470E067
:1006700080E090E00E9498028BC12FE739E049E0CA
:1006800059E061E070E080E090E00E94980280C153
:100690002EE331E441E459E26AE770E080E090E063
:1006A0000E94980275C12FE738E048E058E06FE7F4
:1006B00070E080E090E00E9498026AC121E431E499
:1006C0004FE751E461E470E080E090E00E9498021E
:1006D0005FC120E230E441E45FE361E070E080E08C
:1006E00090E00E94980254C12FE738E044E152E2C2
:1006F00061E470E080E090E00E94980249C12FE739
:1007000030E440E450E460E470E080E090E00E9477
:1007100098023EC12FE732E04CE052E06FE770E014
:1007200080E090E00E94980233C12FE732E04CE174
:1007300050E26FE770E080E090E00E94980228C1EC
:100740002EE331E441E451E46EE370E080E090E0B8
:100750000E9498021DC12FE739E049E059E066E0A8
:1007600070E080E090E00E94980212C12EE331E434
:1007700041E551E26EE570E080E090E00E94980271
:1007800007C12FE739E049E159E266E470E080E013
:1007900090E00E949802FCC026E239E449E459E462
:1007A00062E370E080E090E00E949802F1C021E0F6
:1007B00031E04FE751E061E070E080E090E00E94BE
:1007C0009802E6C02FE330E440E450E46FE370E0C9
:1007D00080E090E00E949802DBC02FE130E240E42C
:1007E00050E26FE170E080E090E00E949802D0C09B
:1007F0002FE330E440E250E46FE370E080E090E00B
:100800000E949802C5C023E634E148E054E163E663
:1008100070E080E090E00E949802BAC023E03CE0E3
:1008200040E75CE063E070E080E090E00E949802C6
:10083000AFC021E631E549E455E463E470E080E0CF
:1008400090E00E949802A4C023EC33E748E15EECFC
:1008500063EC70E080E090E00E94980299C024E28E
:1008600034E244E254E264E270E080E090E00E940E
:1008700098028EC020E030E740E750E760E070E08B
:1008800080E090E00E94980283C020E030E040E0E9
:1008900050E060E070E080E090E00E94980278C054
:1008A00028E138E148E158E168E170E080E090E05B
:1008B0000E9498026DC02EE331E549E455E46EE3F1
:1008C00070E080E090E00E94980262C020E032E494
:1008D0004FE750E460E070E080E090E00E94980212
:1008E00057C022E431E641E559E466E470E080E077
:1008F00090E00E9498024CC021E439E449E459E4B4
:1009000066E370E080E090E00E94980241C028E138
:1009100034E142E15FE760E170E080E090E00E9456
:10092000980236C02FE439E449E459E461E370E009
:1009300080E090E00E9498022BC02CE73AE449E462
:1009400059E461E370E080E090E00E94980220C0EA
:1009500023E031E041E759E067E070E080E090E0BB
:100960000E94980215C026E339E449E459E466E39D
:1009700070E080E090E00E9498020AC026E039E42E
:1009800049E459E26EE170E080E090E00E94980254
:100990008091AA0088540E9408028091A900805C7E
:1009A0000E94080280E00E946A028091A9008F5F85
:1009B0008093A900803448F08091A800811105C07F
:1009C00082E00E94D4011092A9000895CF93DF9392
:1009D000EC0103C00E94EB02219688818111FACFBD
:1009E000DF91CF910895CF92DF92EF92FF920F9314
:1009F0001F93CF93DF9300D000D01F92CDB7DEB707
:100A00006B017C0199235CF48DE20E94EB02F0946F
:100A1000E094D094C094C11CD11CE11CF11C1A823A
:100A20001982FE01339683E0DF011D928A95E9F772
:100A30008E010F5F1F4FC701B6012AE030E040E092
:100A400050E00E94490B605DF80161938F01C22E56
:100A5000D32EE42EF52E1C141D041E041F045CF37B
:100A6000D8018E918D010E94EB02CE010196801774
:100A70009107B1F70F900F900F900F900F90DF91AB
:100A8000CF911F910F91FF90EF90DF90CF9008953D
:100A90008F929F92AF92BF92CF92DF92EF92FF928E
:100AA000CF93DF934B015C010E940F0A6B01E12C95
:100AB000F12CC701B6010E94F3048EE20E94EB0202
:100AC000C701B6010E943E0A9B01AC01C501B401F9
:100AD0000E943009D0E01CC020E030E040E251E448
:100AE0000E94CC0A6B017C010E940F0AC62F80E392
:100AF0008C0F0E94EB026C2F70E080E090E00E946F
:100B0000400A9B01AC01C701B6010E943009DF5FBA
:100B1000D33010F3DF91CF91FF90EF90DF90CF9023
:100B2000BF90AF909F908F900895CF93883078F4C6
:100B3000C82F81E00E94D401C093AA0088EB8C0FDB
:100B40000E9408021092A90080E40E940802CF913E
:100B50000895CF93DF93D0E013C08D2F0E949505A9
:100B600083E00E94D401C0E008C080E48C0F0E94A2
:100B7000080280E00E946A02CF5FC034B0F3DF5FFA
:100B8000D83058F30E94890281E00E94D40110926B
:100B9000A80080E00E949505DF91CF910895FC01A7
:100BA00081B38F7B81BB1FBC1EBC9EB58181892B0D
:100BB0008EBD8EB5928140E4949F90011124282B24
:100BC0002EBD29B7938130E2939FC0011124822B5F
:100BD00089BF1DBC1CBC17BC16BC08959EB59F7B6D
:100BE0009EBD9EB580E4689FB0011124692B6EBD47
:100BF00008951DBC1CBC089586B597B5089508B628
:100C000005FE05C088B7806288BF81E0089580E056
:100C100008954F925F926F927F928F929F92AF92C0
:100C2000BF92CF92DF92EF92FF920F931F93CF93D9
:100C3000DF93EB018A0188B7806288BF61E080E0C2
:100C40000E94EE0580E00E94FF058823D9F360E052
:100C500080E00E94EE0580E00E94F90588B780627E
:100C600088BFC12CD12C760109C008B602FE06C08F
:100C700088B7846088BF8FEFE81AF80A80E00E9486
:100C8000FF05882391F380E00E94FC05C80ED91E61
:100C9000E11CF11C61E080E00E94EE0580E00E9412
:100CA000F90588B7806288BF06C008B602FE03C097
:100CB00088B7846088BF80E00E94FF058823A9F37D
:100CC00080E00E94FC054C01A12CB12C2E01612C6E
:100CD000712CA7019601C301B2010E94390B0E9439
:100CE0003E0A20E030E04AE754E40E94CC0A20E0CB
:100CF00034E244E75BE40E949D09F801608371835C
:100D000082839383C701B601680D791D8A1D9B1DDF
:100D1000A30192010E94390B0E943E0A20E030E0BC
:100D20004AE754E40E94CC0A20E034E244E75BE462
:100D30000E949D09F8016483758386839783DF9100
:100D4000CF911F910F91FF90EF90DF90CF90BF90C8
:100D5000AF909F908F907F906F905F904F9008958D
:100D6000CF93DF93CDB7DEB761970FB6F894DEBFB0
:100D70000FBECDBF0E94E106FE01319681E1DF0189
:100D80001D928A95E9F7CE0101960E94EE066A85CA
:100D90007B858C859D8520E030E040EA50E40E9410
:100DA0009D09AB01BC01CE0101960E945407BFEF23
:100DB00023EC89E0B15020408040E1F700C0000002
:100DC000E2CF0E9427020E94A9058BE990E00E94D1
:100DD000B40887E990E00E94CF0508958F929F9212
:100DE000AF92BF92CF92DF92EF92FF920F931F9339
:100DF000CF93DF93CDB7DEB728970FB6F894DEBF59
:100E00000FBECDBF8C0119821A821B821C821D82EB
:100E10001E821F821886AE014F5F5F4F68E070E050
:100E200080E00E940906CD80DE80EF80F884F80122
:100E3000C186D286E386F48689809A80AB80BC80A6
:100E400081829282A382B482A701960160E070E061
:100E500080E89FE30E949D09F80165877687878770
:100E6000908B20E030E048EC52E4C501B4010E94D0
:100E7000CC0AA70196010E949D090E940F0AF80161
:100E8000608328960FB6F894DEBF0FBECDBFDF910A
:100E9000CF911F910F91FF90EF90DF90CF90BF9077
:100EA000AF909F908F900895AF92BF92CF92DF92B4
:100EB000EF92FF920F931F93CF93DF93CDB7DEB7DF
:100EC000EC970FB6F894DEBF0FBECDBF5C016A0190
:100ED0007B010E94A90580E00E94950587E0E0E67D
:100EE000F0E0DE01119601900D928A95E1F718E08D
:100EF000FE013896DF01812F1D928A95E9F7CE0118
:100F000001960E94E604D5011D966D917D918D910B
:100F10009C9150970E94480585E0E2EAF0E0DE01EE
:100F2000509601900D928A95E1F7CE0140960E946D
:100F3000E60482E00E94950587E0EFE6F0E0DE013E
:100F4000559601900D928A95E1F7FE017C96DF019E
:100F5000812F1D928A95E9F7CE0145960E94E604FD
:100F6000D5016C9170E080E090E00E94F3048091E4
:100F70007E0090917F009DA38CA380918000909132
:100F800081009FA38EA318A6CE0184960E94E6043A
:100F900084E00E94950587E0E3E8F0E0DE019996A1
:100FA00001900D928A95E1F7FE01F096DF011D9206
:100FB0001A95E9F7CE0189960E94E604F50161854C
:100FC0007285838594850E94480580919200909156
:100FD000930099AF88AF80919400909195009BAF5A
:100FE0008AAF1CAECE01C8960E94E60486E00E943D
:100FF000950510E04EC020E430E44EE752E062E098
:1010000070E080E090E00E9498021B5F00E00CC05E
:1010100022E032E042E052E062E070E080E090E006
:101020000E9498021B5F0F5FD50111966D917D9113
:101030008D919C911497A70196010E949D090E9491
:101040000F0A061728F322E032E04EE750E460E48E
:1010500070E080E090E00E9498021B5F00E00CC00E
:1010600020E430E440E450E460E470E080E090E0AC
:101070000E9498021B5F0F5FF50165817681878171
:101080009085A70196010E949D090E940F0A0617EC
:1010900038F3183708F4AFCF85E00E94950520E0BB
:1010A0003EE348E05CE16AE270E080E090E00E94AC
:1010B000980210E00BC028E038E048E058E068E013
:1010C00070E080E090E00E9498021F5FD5011196C9
:1010D0006D917D918D919C911497A70196010E942D
:1010E0009D090E940F0A161730F328E038E048E007
:1010F00058E068E070E080E090E00E94980210E024
:101100000BC028E038E048E058E068E070E080E09C
:1011100090E00E9498021F5FF501658176818781CA
:101120009085A70196010E949D090E940F0A16173B
:1011300040F32AE23CE148E05EE360E070E080E0FA
:1011400090E00E949802EC960FB6F894DEBF0FBEB6
:10115000CDBFDF91CF911F910F91FF90EF90DF9066
:10116000CF90BF90AF900895DC0187B3886087BBB4
:1011700013BE23B711969C911197990F990F990F50
:10118000922B906493BF23B713969C9113979295DB
:10119000907F922B906293BF12968C911297482F5A
:1011A00050E048305105E8F4FA01EB57FF4F0C943A
:1011B000680B93B7892B83BF14C093B7892B83BF68
:1011C00010C093B7892B83BF0CC093B7892B83BF03
:1011D00008C093B7892B83BF04C093B78250892B73
:1011E00083BF1CBE13968C911397882319F081300E
:1011F000B9F034C016966C918FEF689FB00111243E
:10120000072E000C880B990B0E94400A20E030E06A
:1012100048EC52E40E949D090E940F0A6CBF1EC058
:1012200016966C9170E080E090E00E94400A9B016D
:10123000AC0160E070E088EC92E40E94300920E0AC
:1012400030E04FE753E40E94CC0A20E030E048EC65
:1012500052E40E949D090E940F0A6CBF12BE0895BD
:101260005058BB27AA270E9448090C94920A0E9452
:10127000840A38F00E948B0A20F039F49F3F19F459
:1012800026F40C94810A0EF4E095E7FB0C947B0A9B
:10129000E92F0E94A30A58F3BA176207730784075D
:1012A000950720F079F4A6F50C94C50A0EF4E095A4
:1012B0000B2EBA2FA02D0B01B90190010C01CA0110
:1012C000A0011124FF27591B99F0593F50F4503EBB
:1012D00068F11A16F040A22F232F342F4427585FAD
:1012E000F3CF469537952795A795F0405395C9F7C5
:1012F0007EF41F16BA0B620B730B840BBAF091507D
:10130000A1F0FF0FBB1F661F771F881FC2F70EC01B
:10131000BA0F621F731F841F48F4879577956795EE
:10132000B795F7959E3F08F0B0CF9395880F08F0DA
:101330009927EE0F9795879508950E94B1090C940F
:10134000920A0E948B0A58F00E94840A40F029F405
:101350005F3F29F00C947B0A51110C94C60A0C943F
:10136000810A0E94A30A68F39923B1F3552391F3EC
:10137000951B550BBB27AA2762177307840738F004
:101380009F5F5F4F220F331F441FAA1FA9F335D061
:101390000E2E3AF0E0E832D091505040E695001C15
:1013A000CAF72BD0FE2F29D0660F771F881FBB1FCF
:1013B000261737074807AB07B0E809F0BB0B802DAD
:1013C000BF01FF2793585F4F3AF09E3F510578F0D9
:1013D0000C947B0A0C94C60A5F3FE4F3983ED4F366
:1013E000869577956795B795F7959F5FC9F7880FAD
:1013F000911D9695879597F90895E1E0660F771FFF
:10140000881FBB1F621773078407BA0720F0621B8F
:10141000730B840BBA0BEE1F88F7E09508950E94BA
:10142000AB0A88F09F5798F0B92F9927B751B0F0C1
:10143000E1F0660F771F881F991F1AF0BA95C9F758
:1014400014C0B13091F00E94C50AB1E008950C9427
:10145000C50A672F782F8827B85F39F0B93FCCF3DA
:10146000869577956795B395D9F73EF490958095D5
:10147000709561957F4F8F4F9F4F0895E89409C0F5
:1014800097FB3EF490958095709561957F4F8F4FB7
:101490009F4F9923A9F0F92F96E9BB279395F695CD
:1014A000879577956795B795F111F8CFFAF4BB0F4B
:1014B00011F460FF1BC06F5F7F4F8F4F9F4F16C0AF
:1014C000882311F096E911C0772321F09EE8872F39
:1014D000762F05C0662371F096E8862F70E060E0F5
:1014E0002AF09A95660F771F881FDAF7880F96956E
:1014F000879597F9089597F99F6780E870E060E015
:1015000008959FEF80EC089500240A94161617069C
:1015100018060906089500240A94121613061406E4
:1015200005060895092E0394000C11F4882352F047
:10153000BB0F40F4BF2B11F460FF04C06F5F7F4FFF
:101540008F4F9F4F089557FD9058440F551F59F0E6
:101550005F3F71F04795880F97FB991F61F09F3FA0
:1015600079F087950895121613061406551FF2CFC9
:101570004695F1DF08C0161617061806991FF1CF19
:1015800086957105610508940895E894BB27662740
:101590007727CB0197F908950E94DF0A0C94920AED
:1015A0000E94840A38F00E948B0A20F0952311F0E3
:1015B0000C947B0A0C94810A11240C94C60A0E9494
:1015C000A30A70F3959FC1F3950F50E0551F629FDA
:1015D000F001729FBB27F00DB11D639FAA27F00D8C
:1015E000B11DAA1F649F6627B00DA11D661F829FB3
:1015F0002227B00DA11D621F739FB00DA11D621F98
:10160000839FA00D611D221F749F3327A00D611DB4
:10161000231F849F600D211D822F762F6A2F112496
:101620009F5750409AF0F1F088234AF0EE0FFF1FC9
:10163000BB1F661F771F881F91505040A9F79E3F20
:10164000510580F00C947B0A0C94C60A5F3FE4F3CA
:10165000983ED4F3869577956795B795F795E79576
:101660009F5FC1F7FE2B880F911D9695879597F97F
:101670000895DB018F939F930E946E0BBF91AF91F2
:10168000A29F800D911DA39F900DB29F900D1124DC
:101690000895052E97FB1EF400940E94600B57FDE1
:1016A00007D00E94970B07FC03D04EF40C94600BFC
:1016B00050954095309521953F4F4F4F5F4F08957E
:1016C00090958095709561957F4F8F4F9F4F0895AE
:1016D000EE0FFF1F0590F491E02D09940E94B90BC5
:1016E000A59F900DB49F900DA49F800D911D112476
:1016F000089597FB10F8169400080F93083098F09F
:101700000850232F342F452F562F672F782F892FDE
:10171000902DF4CF05949795879577956795579574
:101720004795379527950A95AAF70F910895A1E255
:101730001A2EAA1BBB1BFD010DC0AA1FBB1FEE1F4B
:10174000FF1FA217B307E407F50720F0A21BB30B96
:10175000E40BF50B661F771F881F991F1A9469F712
:1017600060957095809590959B01AC01BD01CF016E
:101770000895A29FB001B39FC001A39F700D811D6A
:101780001124911DB29F700D811D1124911D08958A
:04179000F894FFCFFB
:10179400467265713D000000000000000000004436
:1017A4007574793D00000000000000000000202551
:1017B40000000054696D653D000000000000000059
:1017C40000006D730000000002000000010401002D
:0817D400013C206B487A000083
:00000001FF
